{
    "abi": [
        {
            "type": "constructor",
            "inputs": [
                {
                    "name": "weth_",
                    "type": "address",
                    "internalType": "contract IWETH"
                },
                {
                    "name": "swapper_",
                    "type": "address",
                    "internalType": "contract ISwapper"
                }
            ],
            "stateMutability": "nonpayable"
        },
        {
            "type": "receive",
            "stateMutability": "payable"
        },
        {
            "type": "function",
            "name": "UPGRADE_INTERFACE_VERSION",
            "inputs": [],
            "outputs": [
                {
                    "name": "",
                    "type": "string",
                    "internalType": "string"
                }
            ],
            "stateMutability": "view"
        },
        {
            "type": "function",
            "name": "initialize",
            "inputs": [
                {
                    "name": "owner",
                    "type": "address",
                    "internalType": "address"
                }
            ],
            "outputs": [],
            "stateMutability": "nonpayable"
        },
        {
            "type": "function",
            "name": "owner",
            "inputs": [],
            "outputs": [
                {
                    "name": "",
                    "type": "address",
                    "internalType": "address"
                }
            ],
            "stateMutability": "view"
        },
        {
            "type": "function",
            "name": "proxiableUUID",
            "inputs": [],
            "outputs": [
                {
                    "name": "",
                    "type": "bytes32",
                    "internalType": "bytes32"
                }
            ],
            "stateMutability": "view"
        },
        {
            "type": "function",
            "name": "renounceOwnership",
            "inputs": [],
            "outputs": [],
            "stateMutability": "nonpayable"
        },
        {
            "type": "function",
            "name": "swapAndDeposit",
            "inputs": [
                {
                    "name": "yelayLiteVault",
                    "type": "address",
                    "internalType": "address"
                },
                {
                    "name": "projectId",
                    "type": "uint256",
                    "internalType": "uint256"
                },
                {
                    "name": "swapArgs",
                    "type": "tuple",
                    "internalType": "struct SwapArgs",
                    "components": [
                        {
                            "name": "tokenIn",
                            "type": "address",
                            "internalType": "address"
                        },
                        {
                            "name": "swapTarget",
                            "type": "address",
                            "internalType": "address"
                        },
                        {
                            "name": "swapCallData",
                            "type": "bytes",
                            "internalType": "bytes"
                        }
                    ]
                },
                {
                    "name": "amount",
                    "type": "uint256",
                    "internalType": "uint256"
                }
            ],
            "outputs": [
                {
                    "name": "shares",
                    "type": "uint256",
                    "internalType": "uint256"
                }
            ],
            "stateMutability": "payable"
        },
        {
            "type": "function",
            "name": "swapper",
            "inputs": [],
            "outputs": [
                {
                    "name": "",
                    "type": "address",
                    "internalType": "contract ISwapper"
                }
            ],
            "stateMutability": "view"
        },
        {
            "type": "function",
            "name": "transferOwnership",
            "inputs": [
                {
                    "name": "newOwner",
                    "type": "address",
                    "internalType": "address"
                }
            ],
            "outputs": [],
            "stateMutability": "nonpayable"
        },
        {
            "type": "function",
            "name": "upgradeToAndCall",
            "inputs": [
                {
                    "name": "newImplementation",
                    "type": "address",
                    "internalType": "address"
                },
                {
                    "name": "data",
                    "type": "bytes",
                    "internalType": "bytes"
                }
            ],
            "outputs": [],
            "stateMutability": "payable"
        },
        {
            "type": "function",
            "name": "weth",
            "inputs": [],
            "outputs": [
                {
                    "name": "",
                    "type": "address",
                    "internalType": "contract IWETH"
                }
            ],
            "stateMutability": "view"
        },
        {
            "type": "function",
            "name": "wrapEthAndDeposit",
            "inputs": [
                {
                    "name": "yelayLiteVault",
                    "type": "address",
                    "internalType": "address"
                },
                {
                    "name": "projectId",
                    "type": "uint256",
                    "internalType": "uint256"
                }
            ],
            "outputs": [
                {
                    "name": "shares",
                    "type": "uint256",
                    "internalType": "uint256"
                }
            ],
            "stateMutability": "payable"
        },
        {
            "type": "event",
            "name": "Initialized",
            "inputs": [
                {
                    "name": "version",
                    "type": "uint64",
                    "indexed": false,
                    "internalType": "uint64"
                }
            ],
            "anonymous": false
        },
        {
            "type": "event",
            "name": "OwnershipTransferred",
            "inputs": [
                {
                    "name": "previousOwner",
                    "type": "address",
                    "indexed": true,
                    "internalType": "address"
                },
                {
                    "name": "newOwner",
                    "type": "address",
                    "indexed": true,
                    "internalType": "address"
                }
            ],
            "anonymous": false
        },
        {
            "type": "event",
            "name": "Upgraded",
            "inputs": [
                {
                    "name": "implementation",
                    "type": "address",
                    "indexed": true,
                    "internalType": "address"
                }
            ],
            "anonymous": false
        },
        {
            "type": "error",
            "name": "AddressEmptyCode",
            "inputs": [
                {
                    "name": "target",
                    "type": "address",
                    "internalType": "address"
                }
            ]
        },
        {
            "type": "error",
            "name": "ERC1967InvalidImplementation",
            "inputs": [
                {
                    "name": "implementation",
                    "type": "address",
                    "internalType": "address"
                }
            ]
        },
        {
            "type": "error",
            "name": "ERC1967NonPayable",
            "inputs": []
        },
        {
            "type": "error",
            "name": "FailedCall",
            "inputs": []
        },
        {
            "type": "error",
            "name": "InvalidInitialization",
            "inputs": []
        },
        {
            "type": "error",
            "name": "NoEth",
            "inputs": []
        },
        {
            "type": "error",
            "name": "NotInitializing",
            "inputs": []
        },
        {
            "type": "error",
            "name": "NotWeth",
            "inputs": []
        },
        {
            "type": "error",
            "name": "OwnableInvalidOwner",
            "inputs": [
                {
                    "name": "owner",
                    "type": "address",
                    "internalType": "address"
                }
            ]
        },
        {
            "type": "error",
            "name": "OwnableUnauthorizedAccount",
            "inputs": [
                {
                    "name": "account",
                    "type": "address",
                    "internalType": "address"
                }
            ]
        },
        {
            "type": "error",
            "name": "UUPSUnauthorizedCallContext",
            "inputs": []
        },
        {
            "type": "error",
            "name": "UUPSUnsupportedProxiableUUID",
            "inputs": [
                {
                    "name": "slot",
                    "type": "bytes32",
                    "internalType": "bytes32"
                }
            ]
        }
    ],
    "bytecode": {
        "object": "0x60e060405230608052348015610013575f5ffd5b506040516115dd3803806115dd8339810160408190526100329161011a565b6001600160a01b0380831660a052811660c05261004d610054565b5050610152565b7ff0c57e16840df040f15088dc2f81fe391c3923bec73e23a9662efc9c229c6a00805468010000000000000000900460ff16156100a45760405163f92ee8a960e01b815260040160405180910390fd5b80546001600160401b03908116146101035780546001600160401b0319166001600160401b0390811782556040519081527fc7f505b2f371ae2175ee4913f4499e1f2633a7b5936321eed1cdaeb6115181d29060200160405180910390a15b50565b6001600160a01b0381168114610103575f5ffd5b5f5f6040838503121561012b575f5ffd5b825161013681610106565b602084015190925061014781610106565b809150509250929050565b60805160a05160c0516114156101c85f395f818160df015281816103580152818161038a015261049a01525f818161013d01528181610264015281816102ba015281816103340152818161064d0152818161072d01526107a701525f8181610bb001528181610bd90152610d1d01526114155ff3fe60806040526004361061009d575f3560e01c806352d1902d1161006257806352d1902d14610174578063715018a6146101885780638da5cb5b1461019c578063ad3cb1cc146101d8578063c4d66de814610215578063f2fde38b14610234575f5ffd5b806318bb27a8146100a85780632b3297f9146100ce57806331b8eb43146101195780633fc8cef31461012c5780634f1ef2861461015f575f5ffd5b366100a457005b5f5ffd5b6100bb6100b636600461106a565b610253565b6040519081526020015b60405180910390f35b3480156100d9575f5ffd5b506101017f000000000000000000000000000000000000000000000000000000000000000081565b6040516001600160a01b0390911681526020016100c5565b6100bb6101273660046110cb565b61070a565b348015610137575f5ffd5b506101017f000000000000000000000000000000000000000000000000000000000000000081565b61017261016d366004611194565b61084d565b005b34801561017f575f5ffd5b506100bb61086c565b348015610193575f5ffd5b50610172610887565b3480156101a7575f5ffd5b507f9016d09d72d40fdae2fd8ceac6b6234c7706214fd39c1cd1e609a0528c199300546001600160a01b0316610101565b3480156101e3575f5ffd5b50610208604051806040016040528060058152602001640352e302e360dc1b81525081565b6040516100c5919061120f565b348015610220575f5ffd5b5061017261022f366004611221565b61089a565b34801561023f575f5ffd5b5061017261024e366004611221565b6109a8565b5f3415610384576001600160a01b037f0000000000000000000000000000000000000000000000000000000000000000166102916020850185611221565b6001600160a01b0316146102b85760405163c11f59c560e01b815260040160405180910390fd5b7f00000000000000000000000000000000000000000000000000000000000000006001600160a01b031663d0e30db0346040518263ffffffff1660e01b81526004015f604051808303818588803b158015610311575f5ffd5b505af1158015610323573d5f5f3e3d5ffd5b5061037f9350506001600160a01b037f00000000000000000000000000000000000000000000000000000000000000001691507f00000000000000000000000000000000000000000000000000000000000000009050346109ea565b6103c8565b6103c8337f0000000000000000000000000000000000000000000000000000000000000000846103b76020880188611221565b6001600160a01b0316929190610a79565b6040805160018082528183019092525f91816020015b60408051606080820183525f8083526020830152918101919091528152602001906001900390816103de5790505090506104178461123c565b815f81518110610429576104296112c3565b60200260200101819052505f866001600160a01b0316637158da7c6040518163ffffffff1660e01b8152600401602060405180830381865afa158015610471573d5f5f3e3d5ffd5b505050506040513d601f19601f8201168201806040525081019061049591906112d7565b90505f7f00000000000000000000000000000000000000000000000000000000000000006001600160a01b0316638961ca5b84846040518363ffffffff1660e01b81526004016104e69291906112f2565b6020604051808303815f875af1158015610502573d5f5f3e3d5ffd5b505050506040513d601f19601f820116820180604052508101906105269190611392565b905061053c6001600160a01b0383168983610b1d565b604051638dbdbe6d60e01b815260048101829052602481018890523360448201526001600160a01b03891690638dbdbe6d906064016020604051808303815f875af115801561058d573d5f5f3e3d5ffd5b505050506040513d601f19601f820116820180604052508101906105b19190611392565b93505f6105c16020880188611221565b6040516370a0823160e01b81523060048201526001600160a01b0391909116906370a0823190602401602060405180830381865afa158015610605573d5f5f3e3d5ffd5b505050506040513d601f19601f820116820180604052508101906106299190611392565b905080156106fe5734156106dc57604051632e1a7d4d60e01b8152600481018290527f00000000000000000000000000000000000000000000000000000000000000006001600160a01b031690632e1a7d4d906024015f604051808303815f87803b158015610696575f5ffd5b505af11580156106a8573d5f5f3e3d5ffd5b505060405133925083156108fc02915083905f818181858888f193505050501580156106d6573d5f5f3e3d5ffd5b506106fe565b6106fe33826106ee60208b018b611221565b6001600160a01b031691906109ea565b50505050949350505050565b5f5f341161072b57604051631ee30da560e11b815260040160405180910390fd5b7f00000000000000000000000000000000000000000000000000000000000000006001600160a01b031663d0e30db0346040518263ffffffff1660e01b81526004015f604051808303818588803b158015610784575f5ffd5b505af1158015610796573d5f5f3e3d5ffd5b506107d29350506001600160a01b037f000000000000000000000000000000000000000000000000000000000000000016915085905034610b1d565b604051638dbdbe6d60e01b8152346004820152602481018390523360448201526001600160a01b03841690638dbdbe6d906064016020604051808303815f875af1158015610822573d5f5f3e3d5ffd5b505050506040513d601f19601f820116820180604052508101906108469190611392565b9392505050565b610855610ba5565b61085e82610c49565b6108688282610c51565b5050565b5f610875610d12565b505f5160206113c05f395f51905f5290565b61088f610d5b565b6108985f610db6565b565b7ff0c57e16840df040f15088dc2f81fe391c3923bec73e23a9662efc9c229c6a008054600160401b810460ff16159067ffffffffffffffff165f811580156108df5750825b90505f8267ffffffffffffffff1660011480156108fb5750303b155b905081158015610909575080155b156109275760405163f92ee8a960e01b815260040160405180910390fd5b845467ffffffffffffffff19166001178555831561095157845460ff60401b1916600160401b1785555b61095a86610e26565b83156109a057845460ff60401b19168555604051600181527fc7f505b2f371ae2175ee4913f4499e1f2633a7b5936321eed1cdaeb6115181d29060200160405180910390a15b505050505050565b6109b0610d5b565b6001600160a01b0381166109de57604051631e4fbdf760e01b81525f60048201526024015b60405180910390fd5b6109e781610db6565b50565b5f60405163a9059cbb60e01b81526001600160a01b038416600482015282602482015260205f6044835f895af191505080601f3d1160015f511416151615610a345750823b153d17155b80610a735760405162461bcd60e51b815260206004820152600f60248201526e1514905394d1915497d19052531151608a1b60448201526064016109d5565b50505050565b5f6040516323b872dd60e01b81526001600160a01b03851660048201526001600160a01b038416602482015282604482015260205f6064835f8a5af191505080601f3d1160015f511416151615610ad25750833b153d17155b80610b165760405162461bcd60e51b81526020600482015260146024820152731514905394d1915497d19493d357d1905253115160621b60448201526064016109d5565b5050505050565b5f60405163095ea7b360e01b81526001600160a01b038416600482015282602482015260205f6044835f895af191505080601f3d1160015f511416151615610b675750823b153d17155b80610a735760405162461bcd60e51b815260206004820152600e60248201526d1054141493d59157d1905253115160921b60448201526064016109d5565b306001600160a01b037f0000000000000000000000000000000000000000000000000000000000000000161480610c2b57507f00000000000000000000000000000000000000000000000000000000000000006001600160a01b0316610c1f5f5160206113c05f395f51905f52546001600160a01b031690565b6001600160a01b031614155b156108985760405163703e46dd60e11b815260040160405180910390fd5b6109e7610d5b565b816001600160a01b03166352d1902d6040518163ffffffff1660e01b8152600401602060405180830381865afa925050508015610cab575060408051601f3d908101601f19168201909252610ca891810190611392565b60015b610cd357604051634c9c8ce360e01b81526001600160a01b03831660048201526024016109d5565b5f5160206113c05f395f51905f528114610d0357604051632a87526960e21b8152600481018290526024016109d5565b610d0d8383610e37565b505050565b306001600160a01b037f000000000000000000000000000000000000000000000000000000000000000016146108985760405163703e46dd60e11b815260040160405180910390fd5b33610d8d7f9016d09d72d40fdae2fd8ceac6b6234c7706214fd39c1cd1e609a0528c199300546001600160a01b031690565b6001600160a01b0316146108985760405163118cdaa760e01b81523360048201526024016109d5565b7f9016d09d72d40fdae2fd8ceac6b6234c7706214fd39c1cd1e609a0528c19930080546001600160a01b031981166001600160a01b03848116918217845560405192169182907f8be0079c531659141344cd1fd0a4f28419497f9722a3daafe3b4186f6b6457e0905f90a3505050565b610e2e610e8c565b6109e781610ed5565b610e4082610edd565b6040516001600160a01b038316907fbc7cd75a20ee27fd9adebab32041f755214dbc6bffa90cc0225b39da2e5c2d3b905f90a2805115610e8457610d0d8282610f40565b610868610fb2565b7ff0c57e16840df040f15088dc2f81fe391c3923bec73e23a9662efc9c229c6a0054600160401b900460ff1661089857604051631afcd79f60e31b815260040160405180910390fd5b6109b0610e8c565b806001600160a01b03163b5f03610f1257604051634c9c8ce360e01b81526001600160a01b03821660048201526024016109d5565b5f5160206113c05f395f51905f5280546001600160a01b0319166001600160a01b0392909216919091179055565b60605f5f846001600160a01b031684604051610f5c91906113a9565b5f60405180830381855af49150503d805f8114610f94576040519150601f19603f3d011682016040523d82523d5f602084013e610f99565b606091505b5091509150610fa9858383610fd1565b95945050505050565b34156108985760405163b398979f60e01b815260040160405180910390fd5b606082610fe657610fe18261102d565b610846565b8151158015610ffd57506001600160a01b0384163b155b1561102657604051639996b31560e01b81526001600160a01b03851660048201526024016109d5565b5092915050565b80511561103d5780518082602001fd5b60405163d6bda27560e01b815260040160405180910390fd5b6001600160a01b03811681146109e7575f5ffd5b5f5f5f5f6080858703121561107d575f5ffd5b843561108881611056565b935060208501359250604085013567ffffffffffffffff8111156110aa575f5ffd5b8501606081880312156110bb575f5ffd5b9396929550929360600135925050565b5f5f604083850312156110dc575f5ffd5b82356110e781611056565b946020939093013593505050565b634e487b7160e01b5f52604160045260245ffd5b5f82601f830112611118575f5ffd5b813567ffffffffffffffff811115611132576111326110f5565b604051601f8201601f19908116603f0116810167ffffffffffffffff81118282101715611161576111616110f5565b604052818152838201602001851015611178575f5ffd5b816020850160208301375f918101602001919091529392505050565b5f5f604083850312156111a5575f5ffd5b82356111b081611056565b9150602083013567ffffffffffffffff8111156111cb575f5ffd5b6111d785828601611109565b9150509250929050565b5f81518084528060208401602086015e5f602082860101526020601f19601f83011685010191505092915050565b602081525f61084660208301846111e1565b5f60208284031215611231575f5ffd5b813561084681611056565b5f6060823603121561124c575f5ffd5b6040516060810167ffffffffffffffff8111828210171561126f5761126f6110f5565b604052823561127d81611056565b8152602083013561128d81611056565b6020820152604083013567ffffffffffffffff8111156112ab575f5ffd5b6112b736828601611109565b60408301525092915050565b634e487b7160e01b5f52603260045260245ffd5b5f602082840312156112e7575f5ffd5b815161084681611056565b5f604082016040835280855180835260608501915060608160051b8601019250602087015f5b8281101561137857868503605f19018452815180516001600160a01b03908116875260208083015190911690870152604090810151606091870182905290611362908701826111e1565b9550506020938401939190910190600101611318565b5050506001600160a01b0385166020850152509050610846565b5f602082840312156113a2575f5ffd5b5051919050565b5f82518060208501845e5f92019182525091905056fe360894a13ba1a3210667c828492db98dca3e2076cc3735a920a3ca505d382bbca264697066735822122009f645bededab6ecc7d6f27a5fb40908e7d0a836670c7acf331711721adfe33b64736f6c634300081c0033",
        "linkReferences": {}
    },
    "methodIdentifiers": {
        "UPGRADE_INTERFACE_VERSION()": "ad3cb1cc",
        "initialize(address)": "c4d66de8",
        "owner()": "8da5cb5b",
        "proxiableUUID()": "52d1902d",
        "renounceOwnership()": "715018a6",
        "swapAndDeposit(address,uint256,(address,address,bytes),uint256)": "18bb27a8",
        "swapper()": "2b3297f9",
        "transferOwnership(address)": "f2fde38b",
        "upgradeToAndCall(address,bytes)": "4f1ef286",
        "weth()": "3fc8cef3",
        "wrapEthAndDeposit(address,uint256)": "31b8eb43"
    },
    "id": 83
}